{
    "_format": "hh-sol-artifact-1",
    "contractName": "Compounder",
    "sourceName": "contracts/Compounder.sol",
    "abi": [
        {
            "inputs": [
                {
                    "internalType": "contract IUniswapV3Factory",
                    "name": "_factory",
                    "type": "address"
                },
                {
                    "internalType": "contract INonfungiblePositionManager",
                    "name": "_nonfungiblePositionManager",
                    "type": "address"
                },
                {
                    "internalType": "contract ISwapRouter",
                    "name": "_swapRouter",
                    "type": "address"
                }
            ],
            "stateMutability": "nonpayable",
            "type": "constructor"
        },
        {
            "anonymous": false,
            "inputs": [
                {
                    "indexed": false,
                    "internalType": "address",
                    "name": "account",
                    "type": "address"
                },
                {
                    "indexed": false,
                    "internalType": "uint256",
                    "name": "tokenId",
                    "type": "uint256"
                },
                {
                    "indexed": false,
                    "internalType": "uint256",
                    "name": "amountAdded0",
                    "type": "uint256"
                },
                {
                    "indexed": false,
                    "internalType": "uint256",
                    "name": "amountAdded1",
                    "type": "uint256"
                },
                {
                    "indexed": false,
                    "internalType": "uint256",
                    "name": "fees0",
                    "type": "uint256"
                },
                {
                    "indexed": false,
                    "internalType": "uint256",
                    "name": "fees1",
                    "type": "uint256"
                },
                {
                    "indexed": false,
                    "internalType": "address",
                    "name": "token0",
                    "type": "address"
                },
                {
                    "indexed": false,
                    "internalType": "address",
                    "name": "token1",
                    "type": "address"
                }
            ],
            "name": "AutoCompounded",
            "type": "event"
        },
        {
            "anonymous": false,
            "inputs": [
                {
                    "indexed": false,
                    "internalType": "address",
                    "name": "account",
                    "type": "address"
                },
                {
                    "indexed": false,
                    "internalType": "address",
                    "name": "token",
                    "type": "address"
                },
                {
                    "indexed": false,
                    "internalType": "uint256",
                    "name": "amount",
                    "type": "uint256"
                }
            ],
            "name": "BalanceAdded",
            "type": "event"
        },
        {
            "anonymous": false,
            "inputs": [
                {
                    "indexed": false,
                    "internalType": "address",
                    "name": "account",
                    "type": "address"
                },
                {
                    "indexed": false,
                    "internalType": "address",
                    "name": "token",
                    "type": "address"
                },
                {
                    "indexed": false,
                    "internalType": "uint256",
                    "name": "amount",
                    "type": "uint256"
                }
            ],
            "name": "BalanceRemoved",
            "type": "event"
        },
        {
            "anonymous": false,
            "inputs": [
                {
                    "indexed": false,
                    "internalType": "address",
                    "name": "account",
                    "type": "address"
                },
                {
                    "indexed": false,
                    "internalType": "address",
                    "name": "token",
                    "type": "address"
                },
                {
                    "indexed": false,
                    "internalType": "address",
                    "name": "to",
                    "type": "address"
                },
                {
                    "indexed": false,
                    "internalType": "uint256",
                    "name": "amount",
                    "type": "uint256"
                }
            ],
            "name": "BalanceWithdrawn",
            "type": "event"
        },
        {
            "anonymous": false,
            "inputs": [
                {
                    "indexed": true,
                    "internalType": "address",
                    "name": "previousOwner",
                    "type": "address"
                },
                {
                    "indexed": true,
                    "internalType": "address",
                    "name": "newOwner",
                    "type": "address"
                }
            ],
            "name": "OwnershipTransferred",
            "type": "event"
        },
        {
            "anonymous": false,
            "inputs": [
                {
                    "indexed": false,
                    "internalType": "address",
                    "name": "account",
                    "type": "address"
                },
                {
                    "indexed": false,
                    "internalType": "uint64",
                    "name": "totalRewardX64",
                    "type": "uint64"
                },
                {
                    "indexed": false,
                    "internalType": "uint64",
                    "name": "compounderRewardX64",
                    "type": "uint64"
                }
            ],
            "name": "RewardUpdated",
            "type": "event"
        },
        {
            "anonymous": false,
            "inputs": [
                {
                    "indexed": false,
                    "internalType": "address",
                    "name": "account",
                    "type": "address"
                },
                {
                    "indexed": false,
                    "internalType": "uint256",
                    "name": "tokenId",
                    "type": "uint256"
                }
            ],
            "name": "TokenDeposited",
            "type": "event"
        },
        {
            "anonymous": false,
            "inputs": [
                {
                    "indexed": false,
                    "internalType": "address",
                    "name": "account",
                    "type": "address"
                },
                {
                    "indexed": false,
                    "internalType": "address",
                    "name": "to",
                    "type": "address"
                },
                {
                    "indexed": false,
                    "internalType": "uint256",
                    "name": "tokenId",
                    "type": "uint256"
                }
            ],
            "name": "TokenWithdrawn",
            "type": "event"
        },
        {
            "inputs": [],
            "name": "MAX_POSITIONS_PER_ADDRESS",
            "outputs": [
                {
                    "internalType": "uint32",
                    "name": "",
                    "type": "uint32"
                }
            ],
            "stateMutability": "view",
            "type": "function"
        },
        {
            "inputs": [
                {
                    "internalType": "address",
                    "name": "",
                    "type": "address"
                },
                {
                    "internalType": "uint256",
                    "name": "",
                    "type": "uint256"
                }
            ],
            "name": "accountTokens",
            "outputs": [
                {
                    "internalType": "uint256",
                    "name": "",
                    "type": "uint256"
                }
            ],
            "stateMutability": "view",
            "type": "function"
        },
        {
            "inputs": [
                {
                    "internalType": "address",
                    "name": "addr",
                    "type": "address"
                }
            ],
            "name": "addressToTokens",
            "outputs": [
                {
                    "internalType": "uint256[]",
                    "name": "",
                    "type": "uint256[]"
                }
            ],
            "stateMutability": "view",
            "type": "function"
        },
        {
            "inputs": [
                {
                    "components": [
                        {
                            "internalType": "uint256",
                            "name": "tokenId",
                            "type": "uint256"
                        },
                        {
                            "internalType": "bool",
                            "name": "rewardConversion",
                            "type": "bool"
                        },
                        {
                            "internalType": "bool",
                            "name": "doSwap",
                            "type": "bool"
                        }
                    ],
                    "internalType": "struct ICompounder.AutoCompoundParams",
                    "name": "params",
                    "type": "tuple"
                }
            ],
            "name": "autoCompound",
            "outputs": [
                {
                    "internalType": "uint256",
                    "name": "fees0",
                    "type": "uint256"
                },
                {
                    "internalType": "uint256",
                    "name": "fees1",
                    "type": "uint256"
                },
                {
                    "internalType": "uint256",
                    "name": "compounded0",
                    "type": "uint256"
                },
                {
                    "internalType": "uint256",
                    "name": "compounded1",
                    "type": "uint256"
                }
            ],
            "stateMutability": "nonpayable",
            "type": "function"
        },
        {
            "inputs": [
                {
                    "internalType": "address",
                    "name": "",
                    "type": "address"
                },
                {
                    "internalType": "address",
                    "name": "",
                    "type": "address"
                }
            ],
            "name": "callerBalances",
            "outputs": [
                {
                    "internalType": "uint256",
                    "name": "",
                    "type": "uint256"
                }
            ],
            "stateMutability": "view",
            "type": "function"
        },
        {
            "inputs": [
                {
                    "components": [
                        {
                            "internalType": "uint256",
                            "name": "tokenId",
                            "type": "uint256"
                        },
                        {
                            "internalType": "address",
                            "name": "recipient",
                            "type": "address"
                        },
                        {
                            "internalType": "uint128",
                            "name": "amount0Max",
                            "type": "uint128"
                        },
                        {
                            "internalType": "uint128",
                            "name": "amount1Max",
                            "type": "uint128"
                        }
                    ],
                    "internalType": "struct INonfungiblePositionManager.CollectParams",
                    "name": "params",
                    "type": "tuple"
                }
            ],
            "name": "collect",
            "outputs": [
                {
                    "internalType": "uint256",
                    "name": "amount0",
                    "type": "uint256"
                },
                {
                    "internalType": "uint256",
                    "name": "amount1",
                    "type": "uint256"
                }
            ],
            "stateMutability": "nonpayable",
            "type": "function"
        },
        {
            "inputs": [
                {
                    "components": [
                        {
                            "internalType": "uint256",
                            "name": "tokenId",
                            "type": "uint256"
                        },
                        {
                            "internalType": "uint128",
                            "name": "liquidity",
                            "type": "uint128"
                        },
                        {
                            "internalType": "uint256",
                            "name": "amount0Min",
                            "type": "uint256"
                        },
                        {
                            "internalType": "uint256",
                            "name": "amount1Min",
                            "type": "uint256"
                        },
                        {
                            "internalType": "uint256",
                            "name": "deadline",
                            "type": "uint256"
                        },
                        {
                            "internalType": "address",
                            "name": "recipient",
                            "type": "address"
                        }
                    ],
                    "internalType": "struct ICompounder.DecreaseLiquidityAndCollectParams",
                    "name": "params",
                    "type": "tuple"
                }
            ],
            "name": "decreaseLiquidityAndCollect",
            "outputs": [
                {
                    "internalType": "uint256",
                    "name": "amount0",
                    "type": "uint256"
                },
                {
                    "internalType": "uint256",
                    "name": "amount1",
                    "type": "uint256"
                }
            ],
            "stateMutability": "nonpayable",
            "type": "function"
        },
        {
            "inputs": [
                {
                    "internalType": "bytes[]",
                    "name": "data",
                    "type": "bytes[]"
                }
            ],
            "name": "multicall",
            "outputs": [
                {
                    "internalType": "bytes[]",
                    "name": "results",
                    "type": "bytes[]"
                }
            ],
            "stateMutability": "nonpayable",
            "type": "function"
        },
        {
            "inputs": [
                {
                    "internalType": "address",
                    "name": "",
                    "type": "address"
                },
                {
                    "internalType": "address",
                    "name": "",
                    "type": "address"
                },
                {
                    "internalType": "uint256",
                    "name": "tokenId",
                    "type": "uint256"
                },
                {
                    "internalType": "bytes",
                    "name": "",
                    "type": "bytes"
                }
            ],
            "name": "onERC721Received",
            "outputs": [
                {
                    "internalType": "bytes4",
                    "name": "",
                    "type": "bytes4"
                }
            ],
            "stateMutability": "nonpayable",
            "type": "function"
        },
        {
            "inputs": [],
            "name": "owner",
            "outputs": [
                {
                    "internalType": "address",
                    "name": "",
                    "type": "address"
                }
            ],
            "stateMutability": "view",
            "type": "function"
        },
        {
            "inputs": [
                {
                    "internalType": "address",
                    "name": "",
                    "type": "address"
                },
                {
                    "internalType": "address",
                    "name": "",
                    "type": "address"
                }
            ],
            "name": "ownerBalances",
            "outputs": [
                {
                    "internalType": "uint256",
                    "name": "",
                    "type": "uint256"
                }
            ],
            "stateMutability": "view",
            "type": "function"
        },
        {
            "inputs": [
                {
                    "internalType": "uint256",
                    "name": "",
                    "type": "uint256"
                }
            ],
            "name": "ownerOf",
            "outputs": [
                {
                    "internalType": "address",
                    "name": "",
                    "type": "address"
                }
            ],
            "stateMutability": "view",
            "type": "function"
        },
        {
            "inputs": [],
            "name": "protocolReward",
            "outputs": [
                {
                    "internalType": "uint64",
                    "name": "",
                    "type": "uint64"
                }
            ],
            "stateMutability": "view",
            "type": "function"
        },
        {
            "inputs": [],
            "name": "renounceOwnership",
            "outputs": [],
            "stateMutability": "nonpayable",
            "type": "function"
        },
        {
            "inputs": [
                {
                    "internalType": "address",
                    "name": "newOwner",
                    "type": "address"
                }
            ],
            "name": "transferOwnership",
            "outputs": [],
            "stateMutability": "nonpayable",
            "type": "function"
        },
        {
            "inputs": [
                {
                    "internalType": "address",
                    "name": "tokenAddress",
                    "type": "address"
                },
                {
                    "internalType": "address",
                    "name": "to",
                    "type": "address"
                }
            ],
            "name": "withdrawBalanceCaller",
            "outputs": [],
            "stateMutability": "nonpayable",
            "type": "function"
        },
        {
            "inputs": [
                {
                    "internalType": "address",
                    "name": "tokenAddress",
                    "type": "address"
                },
                {
                    "internalType": "address",
                    "name": "to",
                    "type": "address"
                }
            ],
            "name": "withdrawBalanceOwner",
            "outputs": [],
            "stateMutability": "nonpayable",
            "type": "function"
        },
        {
            "inputs": [
                {
                    "internalType": "uint256",
                    "name": "tokenId",
                    "type": "uint256"
                },
                {
                    "internalType": "address",
                    "name": "to",
                    "type": "address"
                },
                {
                    "internalType": "bool",
                    "name": "withdrawBalances",
                    "type": "bool"
                },
                {
                    "internalType": "bytes",
                    "name": "data",
                    "type": "bytes"
                }
            ],
            "name": "withdrawToken",
            "outputs": [],
            "stateMutability": "nonpayable",
            "type": "function"
        }
    ],
    "bytecode": "0x60e06040523480156200001157600080fd5b5060405162004940380380620049408339810160408190526200003491620000bf565b6001600090815562000045620000bb565b600180546001600160a01b0319166001600160a01b038316908117909155604051919250906000907f8be0079c531659141344cd1fd0a4f28419497f9722a3daafe3b4186f6b6457e0908290a3506001600160601b0319606093841b811660805291831b821660a05290911b1660c0526200012b565b3390565b600080600060608486031215620000d4578283fd5b8351620000e18162000112565b6020850151909350620000f48162000112565b6040850151909250620001078162000112565b809150509250925092565b6001600160a01b03811681146200012857600080fd5b50565b60805160601c60a05160601c60c05160601c61478a620001b66000398061287752806129db52806132a352508061037a52806105a8528061076d5280610d285280610db55280610ec0528061114d528061123d5280611353528061167d5280611b345280611c2e52806127a7528061282c528061290b52806129905250806121db525061478a6000f3fe608060405234801561001057600080fd5b50600436106101365760003560e01c8063725b72e0116100b257806394f72cda11610081578063ca33833811610066578063ca338338146102a0578063f2fde38b146102c3578063fc6f7865146102d657610136565b806394f72cda1461026d578063ac9650d81461028057610136565b8063725b72e01461022a5780637624e0801461023f5780638da5cb5b146102525780639001a1dd1461025a57610136565b80634b3569f6116101095780636242da2f116100ee5780636242da2f146101ef5780636352211e14610202578063715018a61461022257610136565b80634b3569f6146101ba57806358c3f379146101da57610136565b8063150b7a021461013b578063267f29fb146101645780632b51ca16146101845780632b73f3ae14610199575b600080fd5b61014e610149366004613a68565b6102e9565b60405161015b91906141ec565b60405180910390f35b6101776101723660046139f8565b61044d565b60405161015b91906141a8565b61018c6104c7565b60405161015b919061455b565b6101ac6101a7366004613c15565b6104cc565b60405161015b929190614532565b6101cd6101c8366004613a30565b610804565b60405161015b9190614529565b6101ed6101e8366004613a30565b610821565b005b6101cd6101fd366004613b02565b610914565b610215610210366004613d0b565b610945565b60405161015b9190613fe0565b6101ed61096d565b610232610a84565b60405161015b919061456c565b6101ed61024d366004613a30565b610a89565b610215610b72565b6101ed610268366004613d3b565b610b8e565b6101cd61027b366004613a30565b610f74565b61029361028e366004613b2d565b610f91565b60405161015b919061412a565b6102b36102ae366004613b9c565b61106f565b60405161015b9493929190614540565b6101ed6102d13660046139f8565b61187b565b6101ac6102e4366004613bfe565b611a1d565b60006002600054141561035d57604080517f08c379a000000000000000000000000000000000000000000000000000000000815260206004820152601f60248201527f5265656e7472616e637947756172643a207265656e7472616e742063616c6c00604482015290519081900360640190fd5b60026000553373ffffffffffffffffffffffffffffffffffffffff7f000000000000000000000000000000000000000000000000000000000000000016146103da576040517f08c379a00000000000000000000000000000000000000000000000000000000081526004016103d190614219565b60405180910390fd5b6103e48432611bca565b7fbc7c8a4d8049a3f99a02f2a20640c206a2e4d3f2fa54fd20da9f01fda3620cda3285604051610415929190614069565b60405180910390a1507f150b7a0200000000000000000000000000000000000000000000000000000000600160005595945050505050565b73ffffffffffffffffffffffffffffffffffffffff81166000908152600360209081526040918290208054835181840281018401909452808452606093928301828280156104ba57602002820191906000526020600020905b8154815260200190600101908083116104a6575b505050505090505b919050565b606481565b6000806002600054141561054157604080517f08c379a000000000000000000000000000000000000000000000000000000000815260206004820152601f60248201527f5265656e7472616e637947756172643a207265656e7472616e742063616c6c00604482015290519081900360640190fd5b600260008181558435808252602092909252604090205473ffffffffffffffffffffffffffffffffffffffff1633146105a6576040517f08c379a00000000000000000000000000000000000000000000000000000000081526004016103d1906142f5565b7f000000000000000000000000000000000000000000000000000000000000000073ffffffffffffffffffffffffffffffffffffffff16630c49ccbe6040518060a001604052808760000135815260200187602001602081019061060a9190613c26565b6fffffffffffffffffffffffffffffffff168152602001876040013581526020018760600135815260200187608001358152506040518263ffffffff1660e01b81526004016106599190614433565b6040805180830381600087803b15801561067257600080fd5b505af1158015610686573d6000803e3d6000fd5b505050506040513d601f19601f820116820180604052508101906106aa9190613e0f565b6040805160808101909152863581529194509250600090602081016106d560c0880160a089016139f8565b73ffffffffffffffffffffffffffffffffffffffff1681526020016106f986611d5f565b6fffffffffffffffffffffffffffffffff16815260200161071985611d5f565b6fffffffffffffffffffffffffffffffff1690526040517ffc6f786500000000000000000000000000000000000000000000000000000000815290915073ffffffffffffffffffffffffffffffffffffffff7f0000000000000000000000000000000000000000000000000000000000000000169063fc6f7865906107a29084906004016143da565b6040805180830381600087803b1580156107bb57600080fd5b505af11580156107cf573d6000803e3d6000fd5b505050506040513d601f19601f820116820180604052508101906107f39190613e0f565b505050506001600081905550915091565b600460209081526000928352604080842090915290825290205481565b6002600054141561089357604080517f08c379a000000000000000000000000000000000000000000000000000000000815260206004820152601f60248201527f5265656e7472616e637947756172643a207265656e7472616e742063616c6c00604482015290519081900360640190fd5b6002600090815533815260056020908152604080832073ffffffffffffffffffffffffffffffffffffffff86168452909152902054806108ff576040517f08c379a00000000000000000000000000000000000000000000000000000000081526004016103d19061432c565b61090a838383611d7e565b5050600160005550565b6003602052816000526040600020818154811061093057600080fd5b90600052602060002001600091509150505481565b60026020526000908152604090205473ffffffffffffffffffffffffffffffffffffffff1681565b610975611dfc565b73ffffffffffffffffffffffffffffffffffffffff16610993610b72565b73ffffffffffffffffffffffffffffffffffffffff1614610a1557604080517f08c379a000000000000000000000000000000000000000000000000000000000815260206004820181905260248201527f4f776e61626c653a2063616c6c6572206973206e6f7420746865206f776e6572604482015290519081900360640190fd5b60015460405160009173ffffffffffffffffffffffffffffffffffffffff16907f8be0079c531659141344cd1fd0a4f28419497f9722a3daafe3b4186f6b6457e0908390a3600180547fffffffffffffffffffffffff0000000000000000000000000000000000000000169055565b600581565b60026000541415610afb57604080517f08c379a000000000000000000000000000000000000000000000000000000000815260206004820152601f60248201527f5265656e7472616e637947756172643a207265656e7472616e742063616c6c00604482015290519081900360640190fd5b6002600090815533815260046020908152604080832073ffffffffffffffffffffffffffffffffffffffff8616845290915290205480610b67576040517f08c379a00000000000000000000000000000000000000000000000000000000081526004016103d19061432c565b61090a838383611e00565b60015473ffffffffffffffffffffffffffffffffffffffff1690565b60026000541415610c0057604080517f08c379a000000000000000000000000000000000000000000000000000000000815260206004820152601f60248201527f5265656e7472616e637947756172643a207265656e7472616e742063616c6c00604482015290519081900360640190fd5b600260008181558581526020919091526040902054849073ffffffffffffffffffffffffffffffffffffffff163314610c65576040517f08c379a00000000000000000000000000000000000000000000000000000000081526004016103d1906142f5565b73ffffffffffffffffffffffffffffffffffffffff8416301415610cb5576040517f08c379a00000000000000000000000000000000000000000000000000000000081526004016103d190614287565b8215610e79576040805160808101825286815273ffffffffffffffffffffffffffffffffffffffff86811660208301526fffffffffffffffffffffffffffffffff828401819052606083015291517ffc6f78650000000000000000000000000000000000000000000000000000000081527f00000000000000000000000000000000000000000000000000000000000000009092169163fc6f786591610d5d916004016143da565b6040805180830381600087803b158015610d7657600080fd5b505af1158015610d8a573d6000803e3d6000fd5b505050506040513d601f19601f82011682018060405250810190610dae9190613e0f565b50506000807f000000000000000000000000000000000000000000000000000000000000000073ffffffffffffffffffffffffffffffffffffffff166399fbab88886040518263ffffffff1660e01b8152600401610e0c9190614529565b6101806040518083038186803b158015610e2557600080fd5b505afa158015610e39573d6000803e3d6000fd5b505050506040513d601f19601f82011682018060405250810190610e5d9190613e32565b5050505050505050935093505050610e76828288611e72565b50505b610e833386611ef6565b6040517fb88d4fde00000000000000000000000000000000000000000000000000000000815273ffffffffffffffffffffffffffffffffffffffff7f0000000000000000000000000000000000000000000000000000000000000000169063b88d4fde90610efb90309088908a9088906004016140eb565b600060405180830381600087803b158015610f1557600080fd5b505af1158015610f29573d6000803e3d6000fd5b505050507f8210728e7c071f615b840ee026032693858fbcd5e5359e67e438c890f59e5620338587604051610f6093929190614038565b60405180910390a150506001600055505050565b600560209081526000928352604080842090915290825290205481565b60608167ffffffffffffffff81118015610faa57600080fd5b50604051908082528060200260200182016040528015610fde57816020015b6060815260200190600190039081610fc95790505b50905060005b828110156110675761104830858584818110610ffc57fe5b905060200281019061100e9190614581565b8080601f0160208091040260200160405190810160405280939291908181526020018383808284376000920191909152506120a792505050565b82828151811061105457fe5b6020908102919091010152600101610fe4565b505b92915050565b60008060008061107d6138f0565b855160009081526002602052604090205473ffffffffffffffffffffffffffffffffffffffff16608082018190526110e1576040517f08c379a00000000000000000000000000000000000000000000000000000000081526004016103d1906142be565b60408051608081018252875181523060208201526fffffffffffffffffffffffffffffffff818301819052606082015290517ffc6f786500000000000000000000000000000000000000000000000000000000815273ffffffffffffffffffffffffffffffffffffffff7f0000000000000000000000000000000000000000000000000000000000000000169163fc6f78659161118191906004016143da565b6040805180830381600087803b15801561119a57600080fd5b505af11580156111ae573d6000803e3d6000fd5b505050506040513d601f19601f820116820180604052508101906111d29190613e0f565b60208301528082521515806111eb575060008160200151115b6111f457600080fd5b8560400151156113145785516040517f99fbab8800000000000000000000000000000000000000000000000000000000815273ffffffffffffffffffffffffffffffffffffffff7f000000000000000000000000000000000000000000000000000000000000000016916399fbab88916112719190600401614529565b6101806040518083038186803b15801561128a57600080fd5b505afa15801561129e573d6000803e3d6000fd5b505050506040513d601f19601f820116820180604052508101906112c29190613e32565b5050505050600290810b810b61012089015290810b900b61010087015262ffffff1660e086015273ffffffffffffffffffffffffffffffffffffffff90811660c08601521660a0840152506114069050565b85516040517f99fbab8800000000000000000000000000000000000000000000000000000000815273ffffffffffffffffffffffffffffffffffffffff7f000000000000000000000000000000000000000000000000000000000000000016916399fbab88916113879190600401614529565b6101806040518083038186803b1580156113a057600080fd5b505afa1580156113b4573d6000803e3d6000fd5b505050506040513d601f19601f820116820180604052508101906113d89190613e32565b5050505073ffffffffffffffffffffffffffffffffffffffff94851660c08a0152505050501660a084015250505b60808101805173ffffffffffffffffffffffffffffffffffffffff908116600090815260056020818152604080842060a08801518616855282528084205481880190815295518516845291815281832060c08701519094168352929092522054606083015251156114845760408101518151611481916120d3565b81525b6060810151156114a757606081015160208201516114a1916120d3565b60208201525b8560400151156115a4578560200151156114d45780516028810495506114cd9086612147565b8152611502565b60288160200151816114e257fe5b0493506114fc84826020015161214790919063ffffffff16565b60208201525b60006040518060e001604052808360a0015173ffffffffffffffffffffffffffffffffffffffff1681526020018360c0015173ffffffffffffffffffffffffffffffffffffffff1681526020018360e0015162ffffff16815260200183610100015160020b815260200183610120015160020b81526020018360000151815260200183602001518152509050611597816121be565b60208401528252506115f5565b8560200151156115c75780516032810495506115c09086612147565b81526115f5565b60328160200151816115d557fe5b0493506115ef84826020015161214790919063ffffffff16565b60208201525b8051151580611608575060008160200151115b1561170a576040805160c0810182528751815282516020808301919091528301518183015260006060820181905260808201524260a082015290517f219f5d1700000000000000000000000000000000000000000000000000000000815273ffffffffffffffffffffffffffffffffffffffff7f0000000000000000000000000000000000000000000000000000000000000000169163219f5d17916116b191906004016144e5565b606060405180830381600087803b1580156116cb57600080fd5b505af11580156116df573d6000803e3d6000fd5b505050506040513d601f19601f820116820180604052508101906117039190613c42565b9094509250505b8560400151156117ad5760408101511561175e57608081015173ffffffffffffffffffffffffffffffffffffffff908116600090815260056020908152604080832060a08601519094168352929052908120555b6060810151156117a857608081015173ffffffffffffffffffffffffffffffffffffffff908116600090815260056020908152604080832060c08601519094168352929052908120555b611846565b80516117b99084612147565b608082015173ffffffffffffffffffffffffffffffffffffffff908116600090815260056020908152604080832060a08701519094168352928152919020919091558101516118089083612147565b608082015173ffffffffffffffffffffffffffffffffffffffff908116600090815260056020908152604080832060c0870151909416835292905220555b8560200151156118645761185f338260a00151876126dc565b611873565b611873338260c00151866126dc565b509193509193565b611883611dfc565b73ffffffffffffffffffffffffffffffffffffffff166118a1610b72565b73ffffffffffffffffffffffffffffffffffffffff161461192357604080517f08c379a000000000000000000000000000000000000000000000000000000000815260206004820181905260248201527f4f776e61626c653a2063616c6c6572206973206e6f7420746865206f776e6572604482015290519081900360640190fd5b73ffffffffffffffffffffffffffffffffffffffff811661198f576040517f08c379a00000000000000000000000000000000000000000000000000000000081526004018080602001828103825260268152602001806146616026913960400191505060405180910390fd5b60015460405173ffffffffffffffffffffffffffffffffffffffff8084169216907f8be0079c531659141344cd1fd0a4f28419497f9722a3daafe3b4186f6b6457e090600090a3600180547fffffffffffffffffffffffff00000000000000000000000000000000000000001673ffffffffffffffffffffffffffffffffffffffff92909216919091179055565b60008060026000541415611a9257604080517f08c379a000000000000000000000000000000000000000000000000000000000815260206004820152601f60248201527f5265656e7472616e637947756172643a207265656e7472616e742063616c6c00604482015290519081900360640190fd5b600260008181558435808252602092909252604090205473ffffffffffffffffffffffffffffffffffffffff163314611af7576040517f08c379a00000000000000000000000000000000000000000000000000000000081526004016103d1906142f5565b6040517ffc6f786500000000000000000000000000000000000000000000000000000000815273ffffffffffffffffffffffffffffffffffffffff7f0000000000000000000000000000000000000000000000000000000000000000169063fc6f786590611b69908790600401614363565b6040805180830381600087803b158015611b8257600080fd5b505af1158015611b96573d6000803e3d6000fd5b505050506040513d601f19601f82011682018060405250810190611bba9190613e0f565b6001600055909590945092505050565b73ffffffffffffffffffffffffffffffffffffffff8116600090815260036020526040902054606411611c29576040517f08c379a00000000000000000000000000000000000000000000000000000000081526004016103d190614250565b6000807f000000000000000000000000000000000000000000000000000000000000000073ffffffffffffffffffffffffffffffffffffffff166399fbab88856040518263ffffffff1660e01b8152600401611c859190614529565b6101806040518083038186803b158015611c9e57600080fd5b505afa158015611cb2573d6000803e3d6000fd5b505050506040513d601f19601f82011682018060405250810190611cd69190613e32565b5050505050505050935093505050611cee8282612758565b505073ffffffffffffffffffffffffffffffffffffffff166000818152600360209081526040808320805460018101825590845282842001859055938252600290529190912080547fffffffffffffffffffffffff0000000000000000000000000000000000000000169091179055565b806fffffffffffffffffffffffffffffffff811681146104c257600080fd5b33600090815260056020908152604080832073ffffffffffffffffffffffffffffffffffffffff87168452909152812055611dba838383612a26565b7fadd3a6320dd54346ddf0c55851727ae3d93433722e55d17a42451c6c0ae66f9b33848484604051611def9493929190614001565b60405180910390a1505050565b3390565b33600090815260046020908152604080832073ffffffffffffffffffffffffffffffffffffffff871684529091528120819055611e3e826005612ab3565b90506000611e4c8383612147565b9050611e59858583612a26565b611e6b85611e65610b72565b84612a26565b5050505050565b33600090815260056020908152604080832073ffffffffffffffffffffffffffffffffffffffff871684529091529020548015611eb457611eb4848383611d7e565b33600090815260056020908152604080832073ffffffffffffffffffffffffffffffffffffffff871684529091529020548015611e6b57611e6b848483611d7e565b73ffffffffffffffffffffffffffffffffffffffff8216600090815260036020908152604080832080548251818502810185019093528083529192909190830182828015611f6357602002820191906000526020600020905b815481526020019060010190808311611f4f575b5050835193945083925060009150505b82811015611fa65784848281518110611f8857fe5b60200260200101511415611f9e57809150611fa6565b600101611f73565b50818110611fb057fe5b73ffffffffffffffffffffffffffffffffffffffff85166000908152600360205260409020805481907fffffffffffffffffffffffffffffffffffffffffffffffffffffffffffffffff810190811061200557fe5b906000526020600020015481838154811061201c57fe5b90600052602060002001819055508080548061203457fe5b6000828152602080822083017fffffffffffffffffffffffffffffffffffffffffffffffffffffffffffffffff90810183905590920190925595815260029095525050604090922080547fffffffffffffffffffffffff0000000000000000000000000000000000000000169055505050565b60606120cc83836040518060600160405280602781526020016146a860279139612b34565b9392505050565b6000828201838110156120cc57604080517f08c379a000000000000000000000000000000000000000000000000000000000815260206004820152601b60248201527f536166654d6174683a206164646974696f6e206f766572666c6f770000000000604482015290519081900360640190fd5b6000828211156121b857604080517f08c379a000000000000000000000000000000000000000000000000000000000815260206004820152601e60248201527f536166654d6174683a207375627472616374696f6e206f766572666c6f770000604482015290519081900360640190fd5b50900390565b6000806121c9613944565b8360a0015192508360c00151915060007f000000000000000000000000000000000000000000000000000000000000000073ffffffffffffffffffffffffffffffffffffffff16631698ee828660000151876020015188604001516040518463ffffffff1660e01b8152600401612242939291906140b6565b60206040518083038186803b15801561225a57600080fd5b505afa15801561226e573d6000803e3d6000fd5b505050506040513d601f19601f820116820180604052508101906122929190613a14565b90508073ffffffffffffffffffffffffffffffffffffffff16633850c7bd6040518163ffffffff1660e01b815260040160e06040518083038186803b1580156122da57600080fd5b505afa1580156122ee573d6000803e3d6000fd5b505050506040513d601f19601f820116820180604052508101906123129190613c78565b5050505050600290810b810b6040850181905273ffffffffffffffffffffffffffffffffffffffff90921660608501526080870151810b91900b126123645760c0820184905260016080830152612573565b846060015160020b826040015160020b136123df5760608201516123ac9073ffffffffffffffffffffffffffffffffffffffff16806c01000000000000000000000000612c7b565b61010083018190526123ce9084906c0100000000000000000000000090612c7b565b60c083015260006080830152612573565b61241482606001516123f48760600151612d48565b6124018860800151612d48565b6c010000000000000000000000006130db565b6020840181905281845261243791906c0100000000000000000000000090612c7b565b60a0830181905260009061244b90856131c5565b90506000612466866c010000000000000000000000006131c5565b60608501519091506000906124919073ffffffffffffffffffffffffffffffffffffffff16806131c5565b8284106080870181905290915015612511576125076124f76c010000000000000000000000006fffffffffffffffffffffffffffffffff166124f18860a00151857801000000000000000000000000000000000000000000000000612c7b565b906120d3565b6125018486612147565b90612ab3565b60c086015261256f565b61256961255f6c010000000000000000000000006fffffffffffffffffffffffffffffffff166124f18860a00151857801000000000000000000000000000000000000000000000000612c7b565b6125018585612147565b60c08601525b5050505b60c0820151156126d55760608201516125b09073ffffffffffffffffffffffffffffffffffffffff16806c01000000000000000000000000612c7b565b61010083015260808201511561262d5760006126008660000151876040015188602001516040516020016125e693929190613f7a565b6040516020818303038152906040528460c0015142613238565b90506126198360c001518661214790919063ffffffff16565b945061262584826120d3565b9350506126d5565b6126608260c001518361010001516c010000000000000000000000006fffffffffffffffffffffffffffffffff16612c7b565b60e08301819052156126d55760006126ac86602001518760400151886000015160405160200161269293929190613f7a565b6040516020818303038152906040528460e0015142613238565b90506126b885826120d3565b94506126d18360e001518561214790919063ffffffff16565b9350505b5050915091565b80156127535773ffffffffffffffffffffffffffffffffffffffff80841660009081526004602090815260408083209386168352929052205461271f90826120d3565b73ffffffffffffffffffffffffffffffffffffffff8085166000908152600460209081526040808320938716835292905220555b505050565b6040517fdd62ed3e00000000000000000000000000000000000000000000000000000000815260009073ffffffffffffffffffffffffffffffffffffffff84169063dd62ed3e906127cf9030907f00000000000000000000000000000000000000000000000000000000000000009060040161408f565b60206040518083038186803b1580156127e757600080fd5b505afa1580156127fb573d6000803e3d6000fd5b505050506040513d601f19601f8201168201806040525081019061281f9190613d23565b9050806128bc57612871837f00000000000000000000000000000000000000000000000000000000000000007fffffffffffffffffffffffffffffffffffffffffffffffffffffffffffffffff613331565b6128bc837f00000000000000000000000000000000000000000000000000000000000000007fffffffffffffffffffffffffffffffffffffffffffffffffffffffffffffffff613331565b6040517fdd62ed3e00000000000000000000000000000000000000000000000000000000815260009073ffffffffffffffffffffffffffffffffffffffff84169063dd62ed3e906129339030907f00000000000000000000000000000000000000000000000000000000000000009060040161408f565b60206040518083038186803b15801561294b57600080fd5b505afa15801561295f573d6000803e3d6000fd5b505050506040513d601f19601f820116820180604052508101906129839190613d23565b905080612a20576129d5837f00000000000000000000000000000000000000000000000000000000000000007fffffffffffffffffffffffffffffffffffffffffffffffffffffffffffffffff613331565b612a20837f00000000000000000000000000000000000000000000000000000000000000007fffffffffffffffffffffffffffffffffffffffffffffffffffffffffffffffff613331565b50505050565b6040805173ffffffffffffffffffffffffffffffffffffffff8416602482015260448082018490528251808303909101815260649091019091526020810180517bffffffffffffffffffffffffffffffffffffffffffffffffffffffff167fa9059cbb000000000000000000000000000000000000000000000000000000001790526127539084906134bb565b6000808211612b2357604080517f08c379a000000000000000000000000000000000000000000000000000000000815260206004820152601a60248201527f536166654d6174683a206469766973696f6e206279207a65726f000000000000604482015290519081900360640190fd5b818381612b2c57fe5b049392505050565b6060612b3f84613593565b612b94576040517f08c379a00000000000000000000000000000000000000000000000000000000081526004018080602001828103825260268152602001806146cf6026913960400191505060405180910390fd5b6000808573ffffffffffffffffffffffffffffffffffffffff16856040518082805190602001908083835b60208310612bfc57805182527fffffffffffffffffffffffffffffffffffffffffffffffffffffffffffffffe09092019160209182019101612bbf565b6001836020036101000a038019825116818451168082178552505050505050905001915050600060405180830381855af49150503d8060008114612c5c576040519150601f19603f3d011682016040523d82523d6000602084013e612c61565b606091505b5091509150612c71828286613599565b9695505050505050565b600080807fffffffffffffffffffffffffffffffffffffffffffffffffffffffffffffffff85870986860292508281109083900303905080612ccf5760008411612cc457600080fd5b5082900490506120cc565b808411612cdb57600080fd5b6000848688096000868103871696879004966002600389028118808a02820302808a02820302808a02820302808a02820302808a02820302808a02909103029181900381900460010186841190950394909402919094039290920491909117919091029150509392505050565b60008060008360020b12612d5f578260020b612d67565b8260020b6000035b9050620d89e8811115612ddb57604080517f08c379a000000000000000000000000000000000000000000000000000000000815260206004820152600160248201527f5400000000000000000000000000000000000000000000000000000000000000604482015290519081900360640190fd5b600060018216612dfc57700100000000000000000000000000000000612e0e565b6ffffcb933bd6fad37aa2d162d1a5940015b70ffffffffffffffffffffffffffffffffff1690506002821615612e42576ffff97272373d413259a46990580e213a0260801c5b6004821615612e61576ffff2e50f5f656932ef12357cf3c7fdcc0260801c5b6008821615612e80576fffe5caca7e10e4e61c3624eaa0941cd00260801c5b6010821615612e9f576fffcb9843d60f6159c9db58835c9266440260801c5b6020821615612ebe576fff973b41fa98c081472e6896dfb254c00260801c5b6040821615612edd576fff2ea16466c96a3843ec78b326b528610260801c5b6080821615612efc576ffe5dee046a99a2a811c461f1969c30530260801c5b610100821615612f1c576ffcbe86c7900a88aedcffc83b479aa3a40260801c5b610200821615612f3c576ff987a7253ac413176f2b074cf7815e540260801c5b610400821615612f5c576ff3392b0822b70005940c7a398e4b70f30260801c5b610800821615612f7c576fe7159475a2c29b7443b29c7fa6e889d90260801c5b611000821615612f9c576fd097f3bdfd2022b8845ad8f792aa58250260801c5b612000821615612fbc576fa9f746462d870fdf8a65dc1f90e061e50260801c5b614000821615612fdc576f70d869a156d2a1b890bb3df62baf32f70260801c5b618000821615612ffc576f31be135f97d08fd981231505542fcfa60260801c5b6201000082161561301d576f09aa508b5b7a84e1c677de54f3e99bc90260801c5b6202000082161561303d576e5d6af8dedb81196699c329225ee6040260801c5b6204000082161561305c576d2216e584f5fa1ea926041bedfe980260801c5b62080000821615613079576b048a170391f7dc42444e8fa20260801c5b60008460020b13156130b257807fffffffffffffffffffffffffffffffffffffffffffffffffffffffffffffffff816130ae57fe5b0490505b6401000000008106156130c65760016130c9565b60005b60ff16602082901c0192505050919050565b6000808373ffffffffffffffffffffffffffffffffffffffff168573ffffffffffffffffffffffffffffffffffffffff161115613116579293925b8473ffffffffffffffffffffffffffffffffffffffff168673ffffffffffffffffffffffffffffffffffffffff161161315b57613154858585613657565b91506131bc565b8373ffffffffffffffffffffffffffffffffffffffff168673ffffffffffffffffffffffffffffffffffffffff1610156131ae5761319a868585613657565b91506131a785878561370a565b90506131bc565b6131b985858561370a565b90505b94509492505050565b6000826131d457506000611069565b828202828482816131e157fe5b04146120cc576040517f08c379a00000000000000000000000000000000000000000000000000000000081526004018080602001828103825260218152602001806146876021913960400191505060405180910390fd5b600082156120cc576040805160a081018252858152306020820152808201849052606081018590526000608082015290517fc04b8d5900000000000000000000000000000000000000000000000000000000815273ffffffffffffffffffffffffffffffffffffffff7f0000000000000000000000000000000000000000000000000000000000000000169163c04b8d59916132d7919060040161447f565b602060405180830381600087803b1580156132f157600080fd5b505af1158015613305573d6000803e3d6000fd5b505050506040513d601f19601f820116820180604052508101906133299190613d23565b949350505050565b8015806133dd5750604080517fdd62ed3e00000000000000000000000000000000000000000000000000000000815230600482015273ffffffffffffffffffffffffffffffffffffffff848116602483015291519185169163dd62ed3e91604480820192602092909190829003018186803b1580156133af57600080fd5b505afa1580156133c3573d6000803e3d6000fd5b505050506040513d60208110156133d957600080fd5b5051155b613432576040517f08c379a000000000000000000000000000000000000000000000000000000000815260040180806020018281038252603681526020018061471f6036913960400191505060405180910390fd5b6040805173ffffffffffffffffffffffffffffffffffffffff8416602482015260448082018490528251808303909101815260649091019091526020810180517bffffffffffffffffffffffffffffffffffffffffffffffffffffffff167f095ea7b3000000000000000000000000000000000000000000000000000000001790526127539084905b600061351d826040518060400160405280602081526020017f5361666545524332303a206c6f772d6c6576656c2063616c6c206661696c65648152508573ffffffffffffffffffffffffffffffffffffffff166137869092919063ffffffff16565b8051909150156127535780806020019051602081101561353c57600080fd5b5051612753576040517f08c379a000000000000000000000000000000000000000000000000000000000815260040180806020018281038252602a8152602001806146f5602a913960400191505060405180910390fd5b3b151590565b606083156135a85750816120cc565b8251156135b85782518084602001fd5b816040517f08c379a00000000000000000000000000000000000000000000000000000000081526004018080602001828103825283818151815260200191508051906020019080838360005b8381101561361c578181015183820152602001613604565b50505050905090810190601f1680156136495780820380516001836020036101000a031916815260200191505b509250505060405180910390fd5b60008273ffffffffffffffffffffffffffffffffffffffff168473ffffffffffffffffffffffffffffffffffffffff161115613691579192915b8373ffffffffffffffffffffffffffffffffffffffff166136fa606060ff16846fffffffffffffffffffffffffffffffff16901b86860373ffffffffffffffffffffffffffffffffffffffff168673ffffffffffffffffffffffffffffffffffffffff16612c7b565b8161370157fe5b04949350505050565b60008273ffffffffffffffffffffffffffffffffffffffff168473ffffffffffffffffffffffffffffffffffffffff161115613744579192915b613329826fffffffffffffffffffffffffffffffff1685850373ffffffffffffffffffffffffffffffffffffffff166c01000000000000000000000000612c7b565b606061332984846000858561379a85613593565b61380557604080517f08c379a000000000000000000000000000000000000000000000000000000000815260206004820152601d60248201527f416464726573733a2063616c6c20746f206e6f6e2d636f6e7472616374000000604482015290519081900360640190fd5b6000808673ffffffffffffffffffffffffffffffffffffffff1685876040518082805190602001908083835b6020831061386e57805182527fffffffffffffffffffffffffffffffffffffffffffffffffffffffffffffffe09092019160209182019101613831565b6001836020036101000a03801982511681845116808217855250505050505090500191505060006040518083038185875af1925050503d80600081146138d0576040519150601f19603f3d011682016040523d82523d6000602084013e6138d5565b606091505b50915091506138e5828286613599565b979650505050505050565b6040805161014081018252600080825260208201819052918101829052606081018290526080810182905260a0810182905260c0810182905260e08101829052610100810182905261012081019190915290565b6040518061012001604052806000815260200160008152602001600060020b8152602001600073ffffffffffffffffffffffffffffffffffffffff168152602001600015158152602001600081526020016000815260200160008152602001600081525090565b80516104c28161460f565b8051600281900b81146104c257600080fd5b80516104c281614642565b805161ffff811681146104c257600080fd5b805162ffffff811681146104c257600080fd5b600060208284031215613a09578081fd5b81356120cc8161460f565b600060208284031215613a25578081fd5b81516120cc8161460f565b60008060408385031215613a42578081fd5b8235613a4d8161460f565b91506020830135613a5d8161460f565b809150509250929050565b600080600080600060808688031215613a7f578081fd5b8535613a8a8161460f565b94506020860135613a9a8161460f565b935060408601359250606086013567ffffffffffffffff80821115613abd578283fd5b818801915088601f830112613ad0578283fd5b813581811115613ade578384fd5b896020828501011115613aef578384fd5b9699959850939650602001949392505050565b60008060408385031215613b14578182fd5b8235613b1f8161460f565b946020939093013593505050565b60008060208385031215613b3f578182fd5b823567ffffffffffffffff80821115613b56578384fd5b818501915085601f830112613b69578384fd5b813581811115613b77578485fd5b8660208083028501011115613b8a578485fd5b60209290920196919550909350505050565b600060608284031215613bad578081fd5b6040516060810181811067ffffffffffffffff82111715613bca57fe5b604052823581526020830135613bdf81614634565b60208201526040830135613bf281614634565b60408201529392505050565b600060808284031215613c0f578081fd5b50919050565b600060c08284031215613c0f578081fd5b600060208284031215613c37578081fd5b81356120cc81614642565b600080600060608486031215613c56578081fd5b8351613c6181614642565b602085015160409095015190969495509392505050565b600080600080600080600060e0888a031215613c92578485fd5b8751613c9d8161460f565b9650613cab602089016139b6565b9550613cb9604089016139d3565b9450613cc7606089016139d3565b9350613cd5608089016139d3565b925060a088015160ff81168114613cea578283fd5b60c0890151909250613cfb81614634565b8091505092959891949750929550565b600060208284031215613d1c578081fd5b5035919050565b600060208284031215613d34578081fd5b5051919050565b60008060008060808587031215613d50578182fd5b84359350602080860135613d638161460f565b93506040860135613d7381614634565b9250606086013567ffffffffffffffff80821115613d8f578384fd5b818801915088601f830112613da2578384fd5b813581811115613dae57fe5b613dde847fffffffffffffffffffffffffffffffffffffffffffffffffffffffffffffffe0601f840116016145eb565b91508082528984828501011115613df3578485fd5b8084840185840137810190920192909252939692955090935050565b60008060408385031215613e21578182fd5b505080516020909101519092909150565b6000806000806000806000806000806000806101808d8f031215613e54578586fd5b8c516bffffffffffffffffffffffff81168114613e6f578687fd5b9b50613e7d60208e016139ab565b9a50613e8b60408e016139ab565b9950613e9960608e016139ab565b9850613ea760808e016139e5565b9750613eb560a08e016139b6565b9650613ec360c08e016139b6565b9550613ed160e08e016139c8565b94506101008d015193506101208d01519250613ef06101408e016139c8565b9150613eff6101608e016139c8565b90509295989b509295989b509295989b565b60008151808452815b81811015613f3657602081850181015186830182015201613f1a565b81811115613f475782602083870101525b50601f017fffffffffffffffffffffffffffffffffffffffffffffffffffffffffffffffe0169290920160200192915050565b606093841b7fffffffffffffffffffffffffffffffffffffffff000000000000000000000000908116825260e89390931b7fffffff0000000000000000000000000000000000000000000000000000000000166014820152921b166017820152602b0190565b73ffffffffffffffffffffffffffffffffffffffff91909116815260200190565b73ffffffffffffffffffffffffffffffffffffffff9485168152928416602084015292166040820152606081019190915260800190565b73ffffffffffffffffffffffffffffffffffffffff9384168152919092166020820152604081019190915260600190565b73ffffffffffffffffffffffffffffffffffffffff929092168252602082015260400190565b73ffffffffffffffffffffffffffffffffffffffff92831681529116602082015260400190565b73ffffffffffffffffffffffffffffffffffffffff938416815291909216602082015262ffffff909116604082015260600190565b600073ffffffffffffffffffffffffffffffffffffffff808716835280861660208401525083604083015260806060830152612c716080830184613f11565b6000602080830181845280855180835260408601915060408482028701019250838701855b8281101561419b577fffffffffffffffffffffffffffffffffffffffffffffffffffffffffffffffc0888603018452614189858351613f11565b9450928501929085019060010161414f565b5092979650505050505050565b6020808252825182820181905260009190848201906040850190845b818110156141e0578351835292840192918401916001016141c4565b50909695505050505050565b7fffffffff0000000000000000000000000000000000000000000000000000000091909116815260200190565b6020808252600a908201527f21756e69763320706f7300000000000000000000000000000000000000000000604082015260600190565b60208082526015908201527f6d617820706f736974696f6e7320726561636865640000000000000000000000604082015260600190565b60208082526008908201527f746f3d3d74686973000000000000000000000000000000000000000000000000604082015260600190565b60208082526006908201527f21666f756e640000000000000000000000000000000000000000000000000000604082015260600190565b60208082526006908201527f216f776e65720000000000000000000000000000000000000000000000000000604082015260600190565b60208082526009908201527f616d6f756e743d3d300000000000000000000000000000000000000000000000604082015260600190565b813581526080810160208301356143798161460f565b73ffffffffffffffffffffffffffffffffffffffff16602083015260408301356143a281614642565b6fffffffffffffffffffffffffffffffff90811660408401526060840135906143ca82614642565b8082166060850152505092915050565b8151815260208083015173ffffffffffffffffffffffffffffffffffffffff16908201526040808301516fffffffffffffffffffffffffffffffff90811691830191909152606092830151169181019190915260800190565b600060a082019050825182526fffffffffffffffffffffffffffffffff602084015116602083015260408301516040830152606083015160608301526080830151608083015292915050565b600060208252825160a0602084015261449b60c0840182613f11565b905073ffffffffffffffffffffffffffffffffffffffff60208501511660408401526040840151606084015260608401516080840152608084015160a08401528091505092915050565b600060c082019050825182526020830151602083015260408301516040830152606083015160608301526080830151608083015260a083015160a083015292915050565b90815260200190565b918252602082015260400190565b93845260208401929092526040830152606082015260800190565b63ffffffff91909116815260200190565b67ffffffffffffffff91909116815260200190565b60008083357fffffffffffffffffffffffffffffffffffffffffffffffffffffffffffffffe18436030181126145b5578283fd5b83018035915067ffffffffffffffff8211156145cf578283fd5b6020019150368190038213156145e457600080fd5b9250929050565b60405181810167ffffffffffffffff8111828210171561460757fe5b604052919050565b73ffffffffffffffffffffffffffffffffffffffff8116811461463157600080fd5b50565b801515811461463157600080fd5b6fffffffffffffffffffffffffffffffff8116811461463157600080fdfe4f776e61626c653a206e6577206f776e657220697320746865207a65726f2061646472657373536166654d6174683a206d756c7469706c69636174696f6e206f766572666c6f77416464726573733a206c6f772d6c6576656c2064656c65676174652063616c6c206661696c6564416464726573733a2064656c65676174652063616c6c20746f206e6f6e2d636f6e74726163745361666545524332303a204552433230206f7065726174696f6e20646964206e6f7420737563636565645361666545524332303a20617070726f76652066726f6d206e6f6e2d7a65726f20746f206e6f6e2d7a65726f20616c6c6f77616e6365a2646970667358221220c3dfc256dbfb1d443edccbbfd53651d0c2b97b156f43132424dd427dec20032b64736f6c63430007060033",
    "linkReferences": {},
    "deployedLinkReferences": {}
}